:100000000C944E000C9460000C9454050C949F05C5
:100010000C9460000C9460000C9460000C946000E0
:100020000C9460000C9460000C9460000C946000D0
:100030000C9460000C9460000C94FD050C9460001E
:100040000C9460000C9460000C94CC050C9460003F
:100050000C9460000C9460000C9460000C946000A0
:100060000C9460000C9460000C9460000C94600090
:100070000C9460000C9460000C9460000C94600080
:100080000C9460000C9460000C94600005070A0753
:100090000D0710071307160719071C0711241FBEA9
:1000A000CFEFD0E1DEBFCDBF21E0A0E0B1E001C0E5
:1000B0001D92A131B207E1F70E9438060C94901608
:1000C0000C940000E199FECF9FBB8EBB6DBBE29A02
:1000D000E19A0895E199FECF9FBB8EBBE09A8DB364
:1000E000089520B12093070191B19093060186B342
:1000F0008093050180B38093040133B330930301EF
:1001000039B330930201206F2093070193609093DD
:1001100006018E61809304010895CF93DF93C0910F
:100120000001D091010160910701CE010E9462009F
:1001300060910601CE0101960E9462006091050166
:10014000CE0102960E94620060910401CE010396E6
:100150000E94620060910301CE0104960E94620039
:1001600060910201CE0105960E9462002696D0930E
:100170000101C0930001DF91CF91089580910001AA
:10018000909101010E946A0090910701891373C048
:10019000809165008061809365008091000190915D
:1001A0000101019690930101809300010E946A0071
:1001B0009091060189135FC08091650080618093F2
:1001C00065008091000190910101019690930101D9
:1001D000809300010E946A009091050189134BC031
:1001E000809165008061809365008091000190910D
:1001F0000101019690930101809300010E946A0021
:1002000090910401891337C08091650080618093CB
:100210006500809100019091010101969093010188
:10022000809300010E946A0090910301891323C00A
:1002300080916500806180936500809100019091BC
:100240000101019690930101809300010E946A00D0
:100250009091020189130FC08091650080618093A5
:100260006500809100019091010101969093010138
:1002700080930001089580916500886080936500F7
:10028000809165008F7E8093650008951DBC1CBC25
:1002900080910C0190910D019093010180930001D8
:1002A0008091610088608093610080916200886025
:1002B000809362000E948F068FE39CE90197F1F71B
:1002C00000C000000E94710080910E01823019F47C
:1002D0000E94BE0004C0833011F40E948D00809102
:1002E0006100877F8093610080916200877F8093A7
:1002F000620080916100846080936100809162005F
:100300008460809362008FE39CE90197F1F700C05D
:1003100000000E94710080910E01823019F40E9449
:10032000BE0004C0833011F40E948D0080916100F2
:100330008B7F80936100809162008B7F809362004D
:100340008091610082608093610080916200826090
:10035000809362008FE39CE90197F1F700C00000F1
:100360000E94710080910E01823019F40E94BE003B
:1003700004C0833011F40E948D00809161008D7F54
:1003800080936100809162008D7F809362008091F4
:100390006100816080936100809162008160809340
:1003A00062008FE39CE90197F1F700C000000E9412
:1003B000710080910E01823019F40E94BE0004C0C9
:1003C000833011F40E948D00809161008E7F8093B4
:1003D0006100809162008E7F80936200129A1A9A67
:1003E0000E948F068FE39CE90197F1F700C000009F
:1003F0000E94710080910E01823019F40E94BE00AB
:1004000004C0833011F40E948D0012981A98139A38
:100410001B9A8FE39CE90197F1F700C000000E944E
:10042000710080910E01823019F40E94BE0004C058
:10043000833011F40E948D0013981B98149A1C9A13
:100440008FE39CE90197F1F700C000000E94710062
:1004500080910E01823019F40E94BE0004C08330E6
:1004600011F40E948D0014981C98159A1D9A8FE320
:100470009CE90197F1F700C000000E947100809193
:100480000E01823019F40E94BE0004C0833011F4C2
:100490000E948D0015981D98169A1E9A8FE39CE96C
:1004A0000197F1F700C000000E94710080910E01D9
:1004B000823019F40E94BE0004C0833011F40E94FF
:1004C0008D0016981E98179A1F9A8FE39CE9019742
:1004D000F1F700C000000E94710080910E0182308F
:1004E00019F40E94BE0004C0833011F40E948D00F4
:1004F00017981F98B89AC09A0E948F068FE39CE9BC
:100500000197F1F700C000000E94710080910E0178
:10051000823019F40E94BE0004C0833011F40E949E
:100520008D00B898C098B99AC19A8FE39CE9019759
:10053000F1F700C000000E94710080910E0182302E
:1005400019F40E94BE0004C0833011F40E948D0093
:10055000B998C198BA9AC29A8FE39CE90197F1F7CA
:1005600000C000000E94710080910E01823019F4D9
:100570000E94BE0004C0833011F40E948D00BA981E
:10058000C298BB9AC39A8FE39CE90197F1F700C028
:1005900000000E94710080910E01823019F40E94C7
:1005A000BE0004C0833011F40E948D00BB98C39834
:1005B000BC9AC49A8FE39CE90197F1F700C0000050
:1005C0000E94710080910E01823019F40E94BE00D9
:1005D00004C0833011F40E948D00BC98C498BD9A69
:1005E000C59A8FE39CE90197F1F700C000000E94D3
:1005F000710080910E01823019F40E94BE0004C087
:10060000833011F40E948D00BD98C598BE9AC69A99
:100610008FE39CE90197F1F700C000000E94710090
:1006200080910E01823019F40E94BE0004C0833014
:1006300011F40E948D00BE98C698BF9AC79A8FE3A6
:100640009CE90197F1F700C000000E9471008091C1
:100650000E01823019F40E94BE0004C0833011F4F0
:100660000E948D00BF98C798889A909A0E948F0622
:100670008FE39CE90197F1F700C000000E94710030
:1006800080910E01823019F40E94BE0004C08330B4
:1006900011F40E948D00889890988D9A959A8FE316
:1006A0009CE90197F1F700C000000E947100809161
:1006B0000E01823019F40E94BE0004C0833011F490
:1006C0000E948D008D9895988E9A969A8FE39CE95A
:1006D0000197F1F700C000000E94710080910E01A7
:1006E000823019F40E94BE0004C0833011F40E94CD
:1006F0008D008E9896988F9A979A8FE39CE9019730
:10070000F1F700C000000E94710080910E0182305C
:1007100019F40E94BE0004C0833011F40E948D00C1
:100720008F989798A09AA89A0E948F068FE39CE9C9
:100730000197F1F700C000000E94710080910E0146
:10074000823019F40E94BE0004C0833011F40E946C
:100750008D00A098A898A19AA99A8FE39CE9019787
:10076000F1F700C000000E94710080910E018230FC
:1007700019F40E94BE0004C0833011F40E948D0061
:10078000A198A998A29AAA9A8FE39CE90197F1F7F8
:1007900000C000000E94710080910E01823019F4A7
:1007A0000E94BE0004C0833011F40E948D00A29804
:1007B000AA98A39AAB9A8FE39CE90197F1F700C03E
:1007C00000000E94710080910E01823019F40E9495
:1007D000BE0004C0833011F40E948D00A398AB9832
:1007E000A49AAC9A8FE39CE90197F1F700C000004E
:1007F0000E94710080910E01823019F40E94BE00A7
:1008000004C0833011F40E948D00A498AC98A59A7E
:10081000AD9A8FE39CE90197F1F700C000000E94B8
:10082000710080910E01823019F40E94BE0004C054
:10083000833011F40E948D00A598AD98A69AAE9AC7
:100840008FE39CE90197F1F700C000000E9471005E
:1008500080910E01823019F40E94BE0004C08330E2
:1008600011F40E948D00A698AE98A79AAF9A8FE3D4
:100870009CE90197F1F700C000000E94710080918F
:100880000E01823019F40E94BE0004C0833011F4BE
:100890000E948D00A798AF98D79ADF9A0E948F0682
:1008A0008FE39CE90197F1F700C000000E947100FE
:1008B00080910E01823019F40E94BE0004C0833082
:1008C00011F40E948D00D798DF98D69ADE9A8FE3B4
:1008D0009CE90197F1F700C000000E94710080912F
:1008E0000E01823019F40E94BE0004C0833011F45E
:1008F0000E948D00D698DE98D59ADD9A8FE39CE908
:100900000197F1F700C000000E94710080910E0174
:10091000823019F40E94BE0004C0833011F40E949A
:100920008D00D598DD98D49ADC9A8FE39CE90197E5
:10093000F1F700C000000E94710080910E0182302A
:1009400019F40E94BE0004C0833011F40E948D008F
:10095000D498DC98D39ADB9A8FE39CE90197F1F75E
:1009600000C000000E94710080910E01823019F4D5
:100970000E94BE0004C0833011F40E948D00D39801
:10098000DB98D29ADA9A8FE39CE90197F1F700C0DD
:1009900000000E94710080910E01823019F40E94C3
:1009A000BE0004C0833011F40E948D00D298DA9802
:1009B000D19AD99A8FE39CE90197F1F700C0000022
:1009C0000E94710080910E01823019F40E94BE00D5
:1009D00004C0833011F40E948D00D198D998D09A28
:1009E000D89A8FE39CE90197F1F700C000000E94BC
:1009F000710080910E01823019F40E94BE0004C083
:100A0000833011F40E948D00D098D8980895682FF3
:100A100080910F01909110010E94620080910F015E
:100A20009091100101969093100180930F012091F5
:100A30000C0130910D01821B930B843E910551F402
:100A400082E080930E01809165008B7F809365002A
:100A50000C944D051DBC1CBC0E948F065D9BFECFF7
:100A600082E78CB95D9BFECF8EE68CB95D9BFECF95
:100A70008AE08CB90895919A929AEAE6F0E0808132
:100A80008260808389B7866089BF089589B78D7F2A
:100A900089BF89B78B7F89BF089588B7866088BF73
:100AA00089B7866089BF08951F920F920FB60F9283
:100AB00011242F933F934F935F936F937F938F9363
:100AC0009F93AF93BF93EF93FF93809165008F7EC9
:100AD0008093650080916500877F80936500809199
:100AE0000E018230C9F0833029F08130B9F40E94C0
:100AF000D30814C08AE0819B03C081990FC00CC049
:100B00002FEF31EE94E0215030409040E1F700C0EB
:100B10000000815081F7F1CF0E944601FF91EF91D3
:100B2000BF91AF919F918F917F916F915F914F9105
:100B30003F912F910F900FBE0F901F9018951F920D
:100B40000F920FB60F9211242F933F934F935F9301
:100B50006F937F938F939F93AF93BF93EF93FF9385
:100B6000E5E6F0E080818F7E80838081877F8083CF
:100B70008AE00E94BC06FF91EF91BF91AF919F91D7
:100B80008F917F916F915F914F913F912F910F9036
:100B90000FBE0F901F9018951F920F920FB60F92D5
:100BA00011242F933F934F935F936F937F938F9372
:100BB0009F93AF93BF93EF93FF9380910E01843087
:100BC00029F40E9428160E94070506C00E942816D4
:100BD0000E9449160E942C16FF91EF91BF91AF9190
:100BE0009F918F917F916F915F914F913F912F9145
:100BF0000F900FBE0F901F9018951F920F920FB677
:100C00000F9211242F933F934F935F936F937F9392
:100C10008F939F93AF93BF93EF93FF9380910801BE
:100C20008F5F80930801833091F481E080930E01FF
:100C3000809165008B7F809365000E9486160E94DC
:100C40001A160E944D050E94A10610920801FF91FC
:100C5000EF91BF91AF919F918F917F916F915F9134
:100C60004F913F912F910F900FBE0F901F901895AD
:100C70000E944B060E9457060E9466060E94A1062B
:100C80000E943B0589E190E00E941F1681E080935D
:100C90000E017894FFCFE4E6F0E0808184608083E9
:100CA00080818860808380818061808308958B9AB1
:100CB000E4E6F0E0808182608083808181608083CF
:100CC000E5E6F0E080818E7F80830895E5E6F0E040
:100CD00080818160808380818E7F8083089583E01E
:100CE000909165009460909365002FEF30E792E05B
:100CF000215030409040E1F700C000009091650025
:100D00009B7F909365002FEF30E792E021503040B9
:100D10009040E1F700C00000815011F708958091E4
:100D2000630082FF04C0809165008B7F07C08091C3
:100D3000630082FD05C0809165008460809365003A
:100D400008959398E4E6F0E080818D7F8083808130
:100D50008E7F8083E5E6F0E0808182608083808101
:100D60008160808308950E945706E5E6F0E0808167
:100D70008D7F8083939A0895CF93C82F83990CC059
:100D800080910E01813019F482E080930E010E945F
:100D9000B3068FEF8093090190910E01CA3009F5D7
:100DA000809109018F5F80930901913019F492E0DD
:100DB00090930E018830E1F41092090180910E01A8
:100DC000823011F581E080930E010E94A1062FEF81
:100DD00084E39CE0215080409040E1F700C0000097
:100DE00007C0913019F482E080930E01C09309018D
:100DF000C09109018C2F90E08830910518F5FC0115
:100E0000EA5BFF4F0C948A16C0E010920D0110921D
:100E10000C0118C084EE90E011C088EC91E00EC087
:100E20008CEA92E00BC080E993E008C084E794E08C
:100E300005C088E595E002C08CE396E090930D0133
:100E400080930C010E946606CF5FCC2361F08091F5
:100E50006500826080936500809165008D7F80933E
:100E60006500C150F2CF2FEF82E597E0215080401E
:100E70009040E1F700C00000819939C02FEF89E66A
:100E800098E1215080409040E1F700C00000819936
:100E900021C080910E01823079F483E080930E01AD
:100EA0000E946F06809165008460809365000E94B7
:100EB00004160E9484160EC0833061F482E0809391
:100EC0000E010E946F06809165008B7F8093650004
:100ED0000E948616819BFECF829BFCCF2FEF89E676
:100EE00098E1215080409040E1F700C00000CF9190
:100EF0000895039B05C05D9BFECF81E38CB902C0C2
:100F00000E943A16029B05C05D9BFECF81E38CB91F
:100F100002C00E943A16019B05C05D9BFECF81E393
:100F20008CB902C00E943A16009B05C05D9BFECFA3
:100F300081E38CB908950C943A160A9B05C05D9B19
:100F4000FECF81E38CB902C00E943A160B9B05C00C
:100F50005D9BFECF81E38CB902C00E943A160C9BC8
:100F600005C05D9BFECF81E38CB902C00E943A169A
:100F70000D9B05C05D9BFECF81E38CB902C00E9432
:100F80003A160E9B05C05D9BFECF81E38CB902C073
:100F90000E943A160F9B05C05D9BFECF81E38CB982
:100FA00008950C943A16B09B05C05D9BFECF81E37B
:100FB0008CB902C00E943A16B19B05C05D9BFECF62
:100FC00081E38CB902C00E943A16B29B05C05D9BBA
:100FD000FECF81E38CB902C00E943A16B39B05C0D4
:100FE0005D9BFECF81E38CB902C00E943A16B49B90
:100FF00005C05D9BFECF81E38CB902C00E943A160A
:10100000B59B05C05D9BFECF81E38CB902C00E94F9
:101010003A16B69B05C05D9BFECF81E38CB902C03A
:101020000E943A16B79B05C05D9BFECF81E38CB949
:1010300008950C943A16809B05C05D9BFECF81E31A
:101040008CB902C00E943A165D9BFECF80E28CB93B
:10105000859B05C05D9BFECF81E38CB902C00E94D9
:101060003A16869B05C05D9BFECF81E38CB902C01A
:101070000E943A16879B05C05D9BFECF81E38CB929
:1010800008950C943A16989B05C05D9BFECF81E3B2
:101090008CB902C00E943A16999B05C05D9BFECF99
:1010A00081E38CB902C00E943A169A9B05C05D9BF1
:1010B000FECF81E38CB902C00E943A169B9B05C00B
:1010C0005D9BFECF81E38CB902C00E943A169C9BC7
:1010D00005C05D9BFECF81E38CB902C00E943A1629
:1010E0009D9B05C05D9BFECF81E38CB902C00E9431
:1010F0003A169E9B05C05D9BFECF81E38CB902C072
:101100000E943A169F9B05C05D9BFECF81E38CB980
:1011100008950C943A16CF9B05C05D9BFECF81E3EA
:101120008CB902C00E943A16CE9B05C05D9BFECFD3
:1011300081E38CB902C00E943A16CD9B05C05D9B2D
:10114000FECF81E38CB902C00E943A16CC9B05C049
:101150005D9BFECF81E38CB902C00E943A16CB9B07
:1011600005C05D9BFECF81E38CB902C00E943A1698
:10117000CA9B05C05D9BFECF81E38CB902C00E9473
:101180003A16C99B05C05D9BFECF81E38CB902C0B6
:101190000E943A16C89B05C05D9BFECF81E38CB9C7
:1011A00008950C943A1680916500846080936500E0
:1011B0008091610088608093610080916200886006
:1011C000809362008FE39CE90197F1F700C0000073
:1011D0005D9BFECF85E58CB9029B05C05D9BFECF74
:1011E00081E38CB902C00E943A16019B05C05D9B49
:1011F000FECF81E38CB902C00E943A16009B05C065
:101200005D9BFECF81E38CB902C00E943A160E941A
:101210009D070E94D3070E941B080E9443080E945A
:101220008B0880916100877F8093610080916200CC
:10123000877F809362008091610084608093610069
:10124000809162008460809362008FE39CE9019743
:10125000F1F700C00000039B05C05D9BFECF81E35A
:101260008CB902C00E943A165D9BFECF85E58CB911
:10127000019B05C05D9BFECF81E38CB902C00E943B
:101280003A16009B05C05D9BFECF81E38CB902C07E
:101290000E943A160E949D070E94D3070E941B08D5
:1012A0000E9443080E948B08809161008B7F80938D
:1012B0006100809162008B7F809362008091610069
:1012C00082608093610080916200826080936200FE
:1012D0008FE39CE90197F1F700C00000039B05C074
:1012E0005D9BFECF81E38CB902C00E943A16029B3F
:1012F00005C05D9BFECF81E38CB902C00E943A1607
:101300005D9BFECF85E58CB9009B05C05D9BFECF44
:1013100081E38CB902C00E943A160E949D070E9488
:10132000D3070E941B080E9443080E948B088091EB
:1013300061008D7F80936100809162008D7F80933A
:101340006200809161008160809361008091620001
:101350008160809362008FE39CE90197F1F700C000
:101360000000039B05C05D9BFECF81E38CB902C0EA
:101370000E943A16029B05C05D9BFECF81E38CB9AB
:1013800002C00E943A16019B05C05D9BFECF81E31F
:101390008CB902C00E943A165D9BFECF85E58CB9E0
:1013A0000E949D070E94D3070E941B080E944308C9
:1013B0000E948B08809161008E7F809361008091F4
:1013C00062008E7F80936200129A1A9A8FE39CE9E2
:1013D0000197F1F700C000000E9479075D9BFECFE6
:1013E00085E58CB90B9B05C05D9BFECF81E38CB975
:1013F00002C00E943A160C9B05C05D9BFECF81E3A4
:101400008CB902C00E943A160D9B05C05D9BFECFB1
:1014100081E38CB902C00E943A160E9B05C05D9B09
:10142000FECF81E38CB902C00E943A160F9B05C023
:101430005D9BFECF81E38CB902C00E943A160E94E8
:10144000D3070E941B080E9443080E948B08129831
:101450001A98139A1B9A8FE39CE90197F1F700C041
:1014600000000E9479070A9B05C05D9BFECF81E3C7
:101470008CB902C00E943A165D9BFECF85E58CB9FF
:101480000C9B05C05D9BFECF81E38CB902C00E941E
:101490003A160D9B05C05D9BFECF81E38CB902C05F
:1014A0000E943A160E9B05C05D9BFECF81E38CB96E
:1014B00002C00E943A160F9B05C05D9BFECF81E3E0
:1014C0008CB902C00E943A160E94D3070E941B08E2
:1014D0000E9443080E948B0813981B98149A1C9A28
:1014E0008FE39CE90197F1F700C000000E947907A3
:1014F0000A9B05C05D9BFECF81E38CB902C00E94B0
:101500003A160B9B05C05D9BFECF81E38CB902C0F0
:101510000E943A165D9BFECF85E58CB90D9B05C0F8
:101520005D9BFECF81E38CB902C00E943A160E9BF0
:1015300005C05D9BFECF81E38CB902C00E943A16C4
:101540000F9B05C05D9BFECF81E38CB902C00E945A
:101550003A160E94D3070E941B080E9443080E946B
:101560008B0814981C98159A1D9A8FE39CE9019793
:10157000F1F700C000000E9479070A9B05C05D9B3F
:10158000FECF81E38CB902C00E943A160B9B05C0C6
:101590005D9BFECF81E38CB902C00E943A160C9B82
:1015A00005C05D9BFECF81E38CB902C00E943A1654
:1015B0005D9BFECF85E58CB90E9B05C05D9BFECF84
:1015C00081E38CB902C00E943A160F9B05C05D9B57
:1015D000FECF81E38CB902C00E943A160E94D30765
:1015E0000E941B080E9443080E948B0815981D98B2
:1015F000169A1E9A8FE39CE90197F1F700C000004C
:101600000E9479070A9B05C05D9BFECF81E38CB9E0
:1016100002C00E943A160B9B05C05D9BFECF81E382
:101620008CB902C00E943A160C9B05C05D9BFECF90
:1016300081E38CB902C00E943A160D9B05C05D9BE8
:10164000FECF81E38CB902C00E943A165D9BFECFAB
:1016500085E58CB90F9B05C05D9BFECF81E38CB9FE
:1016600002C00E943A160E94D3070E941B080E94E3
:1016700043080E948B0816981E98179A1F9A8FE3AA
:101680009CE90197F1F700C000000E9479070A9BCE
:1016900005C05D9BFECF81E38CB902C00E943A1663
:1016A0000B9B05C05D9BFECF81E38CB902C00E94FD
:1016B0003A160C9B05C05D9BFECF81E38CB902C03E
:1016C0000E943A160D9B05C05D9BFECF81E38CB94D
:1016D00002C00E943A160E9B05C05D9BFECF81E3BF
:1016E0008CB902C00E943A165D9BFECF85E58CB98D
:1016F0000E94D3070E941B080E9443080E948B0887
:1017000017981F98B89AC09A8FE39CE90197F1F750
:1017100000C000000E9479070E949D075D9BFECFDC
:1017200085E58CB9B19B05C05D9BFECF81E38CB98B
:1017300002C00E943A16B29B05C05D9BFECF81E3BA
:101740008CB902C00E943A16B39B05C05D9BFECFC8
:1017500081E38CB902C00E943A16B49B05C05D9B20
:10176000FECF81E38CB902C00E943A16B59B05C03A
:101770005D9BFECF81E38CB902C00E943A16B69BF6
:1017800005C05D9BFECF81E38CB902C00E943A1672
:10179000B79B05C05D9BFECF81E38CB902C00E9460
:1017A0003A160E941B080E9443080E948B08B898B2
:1017B000C098B99AC19A8FE39CE90197F1F700C0EC
:1017C00000000E9479070E949D07B09B05C05D9BA9
:1017D000FECF81E38CB902C00E943A165D9BFECF1A
:1017E00085E58CB9B29B05C05D9BFECF81E38CB9CA
:1017F00002C00E943A16B39B05C05D9BFECF81E3F9
:101800008CB902C00E943A16B49B05C05D9BFECF06
:1018100081E38CB902C00E943A16B59B05C05D9B5E
:10182000FECF81E38CB902C00E943A16B69B05C078
:101830005D9BFECF81E38CB902C00E943A16B79B34
:1018400005C05D9BFECF81E38CB902C00E943A16B1
:101850000E941B080E9443080E948B08B998C198F7
:10186000BA9AC29A8FE39CE90197F1F700C0000091
:101870000E9479070E949D07B09B05C05D9BFECF2B
:1018800081E38CB902C00E943A16B19B05C05D9BF2
:10189000FECF81E38CB902C00E943A165D9BFECF59
:1018A00085E58CB9B39B05C05D9BFECF81E38CB908
:1018B00002C00E943A16B49B05C05D9BFECF81E337
:1018C0008CB902C00E943A16B59B05C05D9BFECF45
:1018D00081E38CB902C00E943A16B69B05C05D9B9D
:1018E000FECF81E38CB902C00E943A16B79B05C0B7
:1018F0005D9BFECF81E38CB902C00E943A160E9424
:101900001B080E9443080E948B08BA98C298BB9A91
:10191000C39A8FE39CE90197F1F700C000000E9491
:1019200079070E949D07B09B05C05D9BFECF81E3B8
:101930008CB902C00E943A16B19B05C05D9BFECFD8
:1019400081E38CB902C00E943A16B29B05C05D9B30
:10195000FECF81E38CB902C00E943A165D9BFECF98
:1019600085E58CB9B49B05C05D9BFECF81E38CB946
:1019700002C00E943A16B59B05C05D9BFECF81E375
:101980008CB902C00E943A16B69B05C05D9BFECF83
:1019900081E38CB902C00E943A16B79B05C05D9BDB
:1019A000FECF81E38CB902C00E943A160E941B0848
:1019B0000E9443080E948B08BB98C398BC9AC49AA3
:1019C0008FE39CE90197F1F700C000000E947907BE
:1019D0000E949D07B09B05C05D9BFECF81E38CB943
:1019E00002C00E943A16B19B05C05D9BFECF81E309
:1019F0008CB902C00E943A16B29B05C05D9BFECF17
:101A000081E38CB902C00E943A16B39B05C05D9B6E
:101A1000FECF81E38CB902C00E943A165D9BFECFD7
:101A200085E58CB9B59B05C05D9BFECF81E38CB984
:101A300002C00E943A16B69B05C05D9BFECF81E3B3
:101A40008CB902C00E943A16B79B05C05D9BFECFC1
:101A500081E38CB902C00E943A160E941B080E94C2
:101A600043080E948B08BC98C498BD9AC59A8FE31E
:101A70009CE90197F1F700C000000E9479070E94DD
:101A80009D07B09B05C05D9BFECF81E38CB902C072
:101A90000E943A16B19B05C05D9BFECF81E38CB9D5
:101AA00002C00E943A16B29B05C05D9BFECF81E347
:101AB0008CB902C00E943A16B39B05C05D9BFECF55
:101AC00081E38CB902C00E943A16B49B05C05D9BAD
:101AD000FECF81E38CB902C00E943A165D9BFECF17
:101AE00085E58CB9B69B05C05D9BFECF81E38CB9C3
:101AF00002C00E943A16B79B05C05D9BFECF81E3F2
:101B00008CB902C00E943A160E941B080E9443082A
:101B10000E948B08BD98C598BE9AC69A8FE39CE92F
:101B20000197F1F700C000000E9479070E949D070D
:101B3000B09B05C05D9BFECF81E38CB902C00E94C3
:101B40003A16B19B05C05D9BFECF81E38CB902C004
:101B50000E943A16B29B05C05D9BFECF81E38CB913
:101B600002C00E943A16B39B05C05D9BFECF81E385
:101B70008CB902C00E943A16B49B05C05D9BFECF93
:101B800081E38CB902C00E943A16B59B05C05D9BEB
:101B9000FECF81E38CB902C00E943A165D9BFECF56
:101BA00085E58CB9B79B05C05D9BFECF81E38CB901
:101BB00002C00E943A160E941B080E9443080E941D
:101BC0008B08BE98C698BF9AC79A8FE39CE9019785
:101BD000F1F700C000000E9479070E949D07B09BAA
:101BE00005C05D9BFECF81E38CB902C00E943A160E
:101BF000B19B05C05D9BFECF81E38CB902C00E9402
:101C00003A16B29B05C05D9BFECF81E38CB902C042
:101C10000E943A16B39B05C05D9BFECF81E38CB951
:101C200002C00E943A16B49B05C05D9BFECF81E3C3
:101C30008CB902C00E943A16B59B05C05D9BFECFD1
:101C400081E38CB902C00E943A16B69B05C05D9B29
:101C5000FECF81E38CB902C00E943A165D9BFECF95
:101C600085E58CB90E941B080E9443080E948B08DE
:101C7000BF98C798889A909A8FE39CE90197F1F7EB
:101C800000C000000E9479070E949D070E94D307B0
:101C90005D9BFECF85E58CB95D9BFECF80E28CB964
:101CA000859B05C05D9BFECF81E38CB902C00E947D
:101CB0003A16869B05C05D9BFECF81E38CB902C0BE
:101CC0000E943A16879B05C05D9BFECF81E38CB9CD
:101CD00002C00E943A160E9443080E948B0888980E
:101CE00090988D9A959A8FE39CE90197F1F700C03F
:101CF00000000E9479070E949D070E94D307809BE5
:101D000005C05D9BFECF81E38CB902C00E943A16EC
:101D10005D9BFECF80E28CB95D9BFECF85E58CB9E3
:101D2000869B05C05D9BFECF81E38CB902C00E94FB
:101D30003A16879B05C05D9BFECF81E38CB902C03C
:101D40000E943A160E9443080E948B088D9895982D
:101D50008E9A969A8FE39CE90197F1F700C00000F4
:101D60000E9479070E949D070E94D307809B05C0AF
:101D70005D9BFECF81E38CB902C00E943A165D9B49
:101D8000FECF80E28CB9859B05C05D9BFECF81E3D1
:101D90008CB902C00E943A165D9BFECF85E58CB9D6
:101DA000879B05C05D9BFECF81E38CB902C00E947A
:101DB0003A160E9443080E948B088E9896988F9A34
:101DC000979A8FE39CE90197F1F700C000000E9409
:101DD00079070E949D070E94D307809B05C05D9BE9
:101DE000FECF81E38CB902C00E943A165D9BFECF04
:101DF00080E28CB9859B05C05D9BFECF81E38CB9E9
:101E000002C00E943A16869B05C05D9BFECF81E30F
:101E10008CB902C00E943A165D9BFECF85E58CB955
:101E20000E9443080E948B088F989798A09AA89ABE
:101E30008FE39CE90197F1F700C000000E94790749
:101E40000E949D070E94D3070E941B085D9BFECF46
:101E500085E58CB9999B05C05D9BFECF81E38CB96C
:101E600002C00E943A169A9B05C05D9BFECF81E39B
:101E70008CB902C00E943A169B9B05C05D9BFECFA9
:101E800081E38CB902C00E943A169C9B05C05D9B01
:101E9000FECF81E38CB902C00E943A169D9B05C01B
:101EA0005D9BFECF81E38CB902C00E943A169E9BD7
:101EB00005C05D9BFECF81E38CB902C00E943A163B
:101EC0009F9B05C05D9BFECF81E38CB902C00E9441
:101ED0003A160E948B08A098A898A19AA99A8FE315
:101EE0009CE90197F1F700C000000E9479070E9469
:101EF0009D070E94D3070E941B08989B05C05D9B0D
:101F0000FECF81E38CB902C00E943A165D9BFECFE2
:101F100085E58CB99A9B05C05D9BFECF81E38CB9AA
:101F200002C00E943A169B9B05C05D9BFECF81E3D9
:101F30008CB902C00E943A169C9B05C05D9BFECFE7
:101F400081E38CB902C00E943A169D9B05C05D9B3F
:101F5000FECF81E38CB902C00E943A169E9B05C059
:101F60005D9BFECF81E38CB902C00E943A169F9B15
:101F700005C05D9BFECF81E38CB902C00E943A167A
:101F80000E948B08A198A998A29AAA9A8FE39CE92B
:101F90000197F1F700C000000E9479070E949D0799
:101FA0000E94D3070E941B08989B05C05D9BFECF33
:101FB00081E38CB902C00E943A16999B05C05D9BD3
:101FC000FECF81E38CB902C00E943A165D9BFECF22
:101FD00085E58CB99B9B05C05D9BFECF81E38CB9E9
:101FE00002C00E943A169C9B05C05D9BFECF81E318
:101FF0008CB902C00E943A169D9B05C05D9BFECF26
:1020000081E38CB902C00E943A169E9B05C05D9B7D
:10201000FECF81E38CB902C00E943A169F9B05C097
:102020005D9BFECF81E38CB902C00E943A160E94EC
:102030008B08A298AA98A39AAB9A8FE39CE9019780
:10204000F1F700C000000E9479070E949D070E94DE
:10205000D3070E941B08989B05C05D9BFECF81E3C0
:102060008CB902C00E943A16999B05C05D9BFECFB9
:1020700081E38CB902C00E943A169A9B05C05D9B11
:10208000FECF81E38CB902C00E943A165D9BFECF61
:1020900085E58CB99C9B05C05D9BFECF81E38CB927
:1020A00002C00E943A169D9B05C05D9BFECF81E356
:1020B0008CB902C00E943A169E9B05C05D9BFECF64
:1020C00081E38CB902C00E943A169F9B05C05D9BBC
:1020D000FECF81E38CB902C00E943A160E948B08A1
:1020E000A398AB98A49AAC9A8FE39CE90197F1F777
:1020F00000C000000E9479070E949D070E94D3073C
:102100000E941B08989B05C05D9BFECF81E38CB9A4
:1021100002C00E943A16999B05C05D9BFECF81E3E9
:102120008CB902C00E943A169A9B05C05D9BFECFF7
:1021300081E38CB902C00E943A169B9B05C05D9B4F
:10214000FECF81E38CB902C00E943A165D9BFECFA0
:1021500085E58CB99D9B05C05D9BFECF81E38CB965
:1021600002C00E943A169E9B05C05D9BFECF81E394
:102170008CB902C00E943A169F9B05C05D9BFECFA2
:1021800081E38CB902C00E943A160E948B08A49881
:10219000AC98A59AAD9A8FE39CE90197F1F700C03E
:1021A00000000E9479070E949D070E94D3070E94A9
:1021B0001B08989B05C05D9BFECF81E38CB902C0D4
:1021C0000E943A16999B05C05D9BFECF81E38CB9B6
:1021D00002C00E943A169A9B05C05D9BFECF81E328
:1021E0008CB902C00E943A169B9B05C05D9BFECF36
:1021F00081E38CB902C00E943A169C9B05C05D9B8E
:10220000FECF81E38CB902C00E943A165D9BFECFDF
:1022100085E58CB99E9B05C05D9BFECF81E38CB9A3
:1022200002C00E943A169F9B05C05D9BFECF81E3D2
:102230008CB902C00E943A160E948B08A598AD98EE
:10224000A69AAE9A8FE39CE90197F1F700C00000CF
:102250000E9479070E949D070E94D3070E941B08D5
:10226000989B05C05D9BFECF81E38CB902C00E94A4
:102270003A16999B05C05D9BFECF81E38CB902C0E5
:102280000E943A169A9B05C05D9BFECF81E38CB9F4
:1022900002C00E943A169B9B05C05D9BFECF81E366
:1022A0008CB902C00E943A169C9B05C05D9BFECF74
:1022B00081E38CB902C00E943A169D9B05C05D9BCC
:1022C000FECF81E38CB902C00E943A165D9BFECF1F
:1022D00085E58CB99F9B05C05D9BFECF81E38CB9E2
:1022E00002C00E943A160E948B08A698AE98A79A40
:1022F000AF9A8FE39CE90197F1F700C000000E94BC
:1023000079070E949D070E94D3070E941B08989B93
:1023100005C05D9BFECF81E38CB902C00E943A16D6
:10232000999B05C05D9BFECF81E38CB902C00E94E2
:102330003A169A9B05C05D9BFECF81E38CB902C023
:102340000E943A169B9B05C05D9BFECF81E38CB932
:1023500002C00E943A169C9B05C05D9BFECF81E3A4
:102360008CB902C00E943A169D9B05C05D9BFECFB2
:1023700081E38CB902C00E943A169E9B05C05D9B0A
:10238000FECF81E38CB902C00E943A165D9BFECF5E
:1023900085E58CB90E948B08A798AF98D79ADF9AE9
:1023A0008FE39CE90197F1F700C000000E947907D4
:1023B0000E949D070E94D3070E941B080E944308A9
:1023C0005D9BFECF85E58CB9CE9B05C05D9BFECFA6
:1023D00081E38CB902C00E943A16CD9B05C05D9B7B
:1023E000FECF81E38CB902C00E943A16CC9B05C097
:1023F0005D9BFECF81E38CB902C00E943A16CB9B55
:1024000005C05D9BFECF81E38CB902C00E943A16E5
:10241000CA9B05C05D9BFECF81E38CB902C00E94C0
:102420003A16C99B05C05D9BFECF81E38CB902C003
:102430000E943A16C89B05C05D9BFECF81E38CB914
:1024400002C00E943A16D798DF98D69ADE9A8FE398
:102450009CE90197F1F700C000000E9479070E94F3
:102460009D070E94D3070E941B080E944308CF9B30
:1024700005C05D9BFECF81E38CB902C00E943A1675
:102480005D9BFECF85E58CB9CD9B05C05D9BFECFE6
:1024900081E38CB902C00E943A16CC9B05C05D9BBB
:1024A000FECF81E38CB902C00E943A16CB9B05C0D7
:1024B0005D9BFECF81E38CB902C00E943A16CA9B95
:1024C00005C05D9BFECF81E38CB902C00E943A1625
:1024D000C99B05C05D9BFECF81E38CB902C00E9401
:1024E0003A16C89B05C05D9BFECF81E38CB902C044
:1024F0000E943A16D698DE98D59ADD9A8FE39CE929
:102500000197F1F700C000000E9479070E949D0723
:102510000E94D3070E941B080E944308CF9B05C05E
:102520005D9BFECF81E38CB902C00E943A16CE9B20
:1025300005C05D9BFECF81E38CB902C00E943A16B4
:102540005D9BFECF85E58CB9CC9B05C05D9BFECF26
:1025500081E38CB902C00E943A16CB9B05C05D9BFB
:10256000FECF81E38CB902C00E943A16CA9B05C017
:102570005D9BFECF81E38CB902C00E943A16C99BD5
:1025800005C05D9BFECF81E38CB902C00E943A1664
:10259000C89B05C05D9BFECF81E38CB902C00E9441
:1025A0003A16D598DD98D49ADC9A8FE39CE9019786
:1025B000F1F700C000000E9479070E949D070E9469
:1025C000D3070E941B080E944308CF9B05C05D9B58
:1025D000FECF81E38CB902C00E943A16CE9B05C0A3
:1025E0005D9BFECF81E38CB902C00E943A16CD9B61
:1025F00005C05D9BFECF81E38CB902C00E943A16F4
:102600005D9BFECF85E58CB9CB9B05C05D9BFECF66
:1026100081E38CB902C00E943A16CA9B05C05D9B3B
:10262000FECF81E38CB902C00E943A16C99B05C057
:102630005D9BFECF81E38CB902C00E943A16C89B15
:1026400005C05D9BFECF81E38CB902C00E943A16A3
:10265000D498DC98D39ADB9A8FE39CE90197F1F741
:1026600000C000000E9479070E949D070E94D307C6
:102670000E941B080E944308CF9B05C05D9BFECFB4
:1026800081E38CB902C00E943A16CE9B05C05D9BC7
:10269000FECF81E38CB902C00E943A16CD9B05C0E3
:1026A0005D9BFECF81E38CB902C00E943A16CC9BA1
:1026B00005C05D9BFECF81E38CB902C00E943A1633
:1026C0005D9BFECF85E58CB9CA9B05C05D9BFECFA7
:1026D00081E38CB902C00E943A16C99B05C05D9B7C
:1026E000FECF81E38CB902C00E943A16C89B05C098
:1026F0005D9BFECF81E38CB902C00E943A16D3984D
:10270000DB98D29ADA9A8FE39CE90197F1F700C03F
:1027100000000E9479070E949D070E94D3070E9433
:102720001B080E944308CF9B05C05D9BFECF81E341
:102730008CB902C00E943A16CE9B05C05D9BFECFAD
:1027400081E38CB902C00E943A16CD9B05C05D9B07
:10275000FECF81E38CB902C00E943A16CC9B05C023
:102760005D9BFECF81E38CB902C00E943A16CB9BE1
:1027700005C05D9BFECF81E38CB902C00E943A1672
:102780005D9BFECF85E58CB9C99B05C05D9BFECFE7
:1027900081E38CB902C00E943A16C89B05C05D9BBC
:1027A000FECF81E38CB902C00E943A16D298DA9823
:1027B000D19AD99A8FE39CE90197F1F700C0000004
:1027C0000E9479070E949D070E94D3070E941B0860
:1027D0000E944308CF9B05C05D9BFECF81E38CB96F
:1027E00002C00E943A16CE9B05C05D9BFECF81E3DE
:1027F0008CB902C00E943A16CD9B05C05D9BFECFEE
:1028000081E38CB902C00E943A16CC9B05C05D9B47
:10281000FECF81E38CB902C00E943A16CB9B05C063
:102820005D9BFECF81E38CB902C00E943A16CA9B21
:1028300005C05D9BFECF81E38CB902C00E943A16B1
:102840005D9BFECF85E58CB9C89B05C05D9BFECF27
:1028500081E38CB902C00E943A16D198D998D09AD7
:10286000D89A8FE39CE90197F1F700C000000E941D
:1028700079070E949D070E94D3070E941B080E94AF
:102880004308CF9B05C05D9BFECF81E38CB902C09E
:102890000E943A16CE9B05C05D9BFECF81E38CB9AA
:1028A00002C00E943A16CD9B05C05D9BFECF81E31E
:1028B0008CB902C00E943A16CC9B05C05D9BFECF2E
:1028C00081E38CB902C00E943A16CB9B05C05D9B88
:1028D000FECF81E38CB902C00E943A16CA9B05C0A4
:1028E0005D9BFECF81E38CB902C00E943A16C99B62
:1028F00005C05D9BFECF81E38CB902C00E943A16F1
:102900005D9BFECF85E58CB9D098D8985D9BFECFB6
:102910008AE08CB9809165008B7F80936500089573
:10292000CF93DF9380910C0190910D0190930B0157
:1029300080930A01D6E20E948F0680910A0190914D
:102940000B010E946A00C82F83FF03C00E943F163C
:1029500002C00E943A16C2FF03C00E943F1602C086
:102960000E943A16C1FF03C00E943F1602C00E9497
:102970003A16C0FF03C00E943F1602C00E943A16DA
:1029800080910A0190910B01019690930B01809325
:102990000A010E946A00C82F82FF03C00E943F16EE
:1029A00002C00E943A16C3FF03C00E943F1602C035
:1029B0000E943A16C4FF03C00E943F1602C00E9444
:1029C0003A16C5FF03C00E943F1602C00E943A1685
:1029D000C6FF03C00E943F1602C00E943A16C7FFFE
:1029E00003C00E943F1602C00E943A1680910A015D
:1029F00090910B01019690930B0180930A010E9424
:102A00006A00C82F80FF03C00E943F1602C00E94C8
:102A10003A16C1FF03C00E943F1602C00E943A1638
:102A2000C2FF03C00E943F1602C00E943A16C3FFB5
:102A300003C00E943F1602C00E943A16C4FF03C0A2
:102A40000E943F1602C00E943A16C5FF03C00E94B2
:102A50003F1602C00E943A16C6FF03C00E943F16EE
:102A600002C00E943A16C7FF03C00E943F1602C070
:102A70000E943A1680910A0190910B010196909361
:102A80000B0180930A010E946A00C82F80FF03C0D7
:102A90000E943F1602C00E943A160E944416C5FFCB
:102AA00003C00E943F1602C00E943A16C6FF03C030
:102AB0000E943F1602C00E943A16C7FF03C00E9440
:102AC0003F1602C00E943A1680910A0190910B01B4
:102AD000019690930B0180930A010E946A00C82F0F
:102AE00080FF03C00E943F1602C00E943A16C1FF39
:102AF00003C00E943F1602C00E943A16C2FF03C0E4
:102B00000E943F1602C00E943A16C3FF03C00E94F3
:102B10003F1602C00E943A16C4FF03C00E943F162F
:102B200002C00E943A16C5FF03C00E943F1602C0B1
:102B30000E943A16C6FF03C00E943F1602C00E94C0
:102B40003A16C7FF03C00E943F1602C00E943A1601
:102B500080910A0190910B01019690930B01809353
:102B60000A010E946A00C82F87FF03C00E943F1617
:102B700002C00E943A16C6FF03C00E943F1602C060
:102B80000E943A16C5FF03C00E943F1602C00E9471
:102B90003A16C4FF03C00E943F1602C00E943A16B4
:102BA000C3FF03C00E943F1602C00E943A16C2FF34
:102BB00003C00E943F1602C00E943A16C1FF03C024
:102BC0000E943F1602C00E943A16C0FF03C00E9436
:102BD0003F1602C00E943A1680910A0190910B01A3
:102BE000019690930B0180930A01D15009F0A3CE76
:102BF0005D9BFECF8AE08CB9809165008B7F8093CE
:102C00006500DF91CF91089584E086BF8EB5856021
:102C10008EBD87B7846087BF1DBC1CBC089584E04F
:102C200086BF8EB584608EBD87B7846087BF1DBCAC
:102C30001CBC089584E086BF1EBC17BE0895909307
:102C4000900089B988E98AB986E080939500089553
:102C50005F9BFECF8CB10895CF93DF931F92CDB7CA
:102C6000DEB75F9B03C08CB18983FBCF0F90DF91F0
:102C7000CF9108955D9BFECF80E38CB908955D9B55
:102C8000FECF81E38CB908955D9BFECF80E28CB9C5
:102C90000895CF93813039F480930E010E94A106EC
:102CA000CF910C94D308811106C081E080930E016E
:102CB000CF910C94A106C82FCF7082958F700E947F
:102CC000BC06C23019F4CF910C949014C430D1F4E6
:102CD0000E940F16C0930E010E94460580910C01C0
:102CE00090910D019093100180930F015D9BFECF99
:102CF00082E78CB95D9BFECF82E78CB95D9BFECFEE
:102D00008AE08CB9CF910895579808950E942C16A7
:102D1000579A0895EE0FFF1F0590F491E02D099446
:042D2000F894FFCF55
:00000001FF
