:100000000C944E000C9460000C9479050C94D2056D
:100010000C9460000C9460000C9460000C946000E0
:100020000C9460000C9460000C9460000C946000D0
:100030000C9460000C9460000C9430060C946000EA
:100040000C9460000C9460000C94FF050C9460000C
:100050000C9460000C9460000C9460000C946000A0
:100060000C9460000C9460000C9460000C94600090
:100070000C9460000C9460000C9460000C94600080
:100080000C9460000C9460000C94600039073F07EA
:1000900046074D0754075B076207690711241FBE17
:1000A000CFEFD0E1DEBFCDBF21E0A0E0B1E001C0E5
:1000B0001D92A131B207E1F70E946B060C94DE1687
:1000C0000C940000E199FECF9FBB8EBB6DBBE29A02
:1000D000E19A0895E199FECF9FBB8EBBE09A8DB364
:1000E000089520B12093070191B19093060186B342
:1000F0008093050180B38093040133B330930301EF
:1001000039B330930201206F2093070193609093DD
:1001100006018E61809304010895CF93DF93C0910F
:100120000001D091010160910701CE010E9462009F
:1001300060910601CE0101960E9462006091050166
:10014000CE0102960E94620060910401CE010396E6
:100150000E94620060910301CE0104960E94620039
:1001600060910201CE0105960E9462002696D0930E
:100170000101C0930001DF91CF91089580910001AA
:10018000909101010E946A0090910701891315C0A6
:10019000E5E6F0E0808180618083809100019091AC
:1001A0000101019690930101809300010E946A0071
:1001B0009091060189131FC009C0E5E6F0E0808137
:1001C0008860808380818F7E80830895E5E6F0E0FB
:1001D000808180618083809100019091010101966E
:1001E00090930101809300010E946A0090910501A3
:1001F00089131FC009C0E5E6F0E080818860808334
:1002000080818F7E80830895E5E6F0E080818061C3
:1002100080838091000190910101019690930101EA
:10022000809300010E946A009091040189131FC00D
:1002300009C0E5E6F0E080818860808380818F7E60
:1002400080830895E5E6F0E080818061808380917D
:1002500000019091010101969093010180930001AA
:100260000E946A009091030189131FC009C0E5E64E
:10027000F0E080818860808380818F7E8083089514
:10028000E5E6F0E0808180618083809100019091BB
:100290000101019690930101809300010E946A0080
:1002A00090910201891319C009C0E5E6F0E0808150
:1002B0008860808380818F7E80830895E5E6F0E00A
:1002C000808180618083809100019091010101967D
:1002D00090930101809300010895E5E6F0E08081AC
:1002E0008860808380818F7E808308951DBC1CBCC4
:1002F00080910C0190910D01909301018093000178
:10030000E1E6F0E0808188608083E2E6F0E08081D1
:10031000886080830E94C0068FE39CE90197F1F713
:1003200000C000000E94710080910E01823019F41B
:100330000E94BE0004C0833011F40E948D00A1E62B
:10034000B0E08C91877F8C93E2E6F0E08081877F3C
:1003500080838C9184608C938081846080838FE320
:100360009CE90197F1F700C000000E9471008091A4
:100370000E01823019F40E94BE0004C0833011F4D3
:100380000E948D00A1E6B0E08C918B7F8C93E2E619
:10039000F0E080818B7F80838C9182608C93808160
:1003A000826080838FE39CE90197F1F700C0000031
:1003B0000E94710080910E01823019F40E94BE00EB
:1003C00004C0833011F40E948D00A1E6B0E08C914E
:1003D0008D7F8C93E2E6F0E080818D7F80838C912D
:1003E00081608C938081816080838FE39CE9019799
:1003F000F1F700C000000E94710080910E01823070
:1004000019F40E94BE0004C0833011F40E948D00D4
:10041000E1E6F0E080818E7F8083E2E6F0E080819B
:100420008E7F8083129A1A9A0E94C0068FE39CE9FD
:100430000197F1F700C000000E94710080910E0149
:10044000823019F40E94BE0004C0833011F40E946F
:100450008D0012981A98139A1B9A8FE39CE90197C2
:10046000F1F700C000000E94710080910E018230FF
:1004700019F40E94BE0004C0833011F40E948D0064
:1004800013981B98149A1C9A8FE39CE90197F1F733
:1004900000C000000E94710080910E01823019F4AA
:1004A0000E94BE0004C0833011F40E948D00149895
:1004B0001C98159A1D9A8FE39CE90197F1F700C0EB
:1004C00000000E94710080910E01823019F40E9498
:1004D000BE0004C0833011F40E948D0015981D9851
:1004E000169A1E9A8FE39CE90197F1F700C000006D
:1004F0000E94710080910E01823019F40E94BE00AA
:1005000004C0833011F40E948D0016981E98179A2B
:100510001F9A8FE39CE90197F1F700C000000E9449
:10052000710080910E01823019F40E94BE0004C057
:10053000833011F40E948D0017981F98B89AC09AC2
:100540000E94C0068FE39CE90197F1F700C000000C
:100550000E94710080910E01823019F40E94BE0049
:1005600004C0833011F40E948D00B898C098B99AE5
:10057000C19A8FE39CE90197F1F700C000000E9447
:10058000710080910E01823019F40E94BE0004C0F7
:10059000833011F40E948D00B998C198BA9AC29A1A
:1005A0008FE39CE90197F1F700C000000E94710001
:1005B00080910E01823019F40E94BE0004C0833085
:1005C00011F40E948D00BA98C298BB9AC39A8FE327
:1005D0009CE90197F1F700C000000E947100809132
:1005E0000E01823019F40E94BE0004C0833011F461
:1005F0000E948D00BB98C398BC9AC49A8FE39CE973
:100600000197F1F700C000000E94710080910E0177
:10061000823019F40E94BE0004C0833011F40E949D
:100620008D00BC98C498BD9AC59A8FE39CE9019748
:10063000F1F700C000000E94710080910E0182302D
:1006400019F40E94BE0004C0833011F40E948D0092
:10065000BD98C598BE9AC69A8FE39CE90197F1F7B9
:1006600000C000000E94710080910E01823019F4D8
:100670000E94BE0004C0833011F40E948D00BE9819
:10068000C698BF9AC79A8FE39CE90197F1F700C01B
:1006900000000E94710080910E01823019F40E94C6
:1006A000BE0004C0833011F40E948D00BF98C7982B
:1006B000889A909A0E94C0068FE39CE90197F1F70F
:1006C00000C000000E94710080910E01823019F478
:1006D0000E94BE0004C0833011F40E948D008898EF
:1006E00090988D9A959A8FE39CE90197F1F700C055
:1006F00000000E94710080910E01823019F40E9466
:10070000BE0004C0833011F40E948D008D9895982E
:100710008E9A969A8FE39CE90197F1F700C000004A
:100720000E94710080910E01823019F40E94BE0077
:1007300004C0833011F40E948D008E9896988F9A91
:10074000979A8FE39CE90197F1F700C000000E949F
:10075000710080910E01823019F40E94BE0004C025
:10076000833011F40E948D008F989798A09AA89AD0
:100770000E94C0068FE39CE90197F1F700C00000DA
:100780000E94710080910E01823019F40E94BE0017
:1007900004C0833011F40E948D00A098A898A19AFB
:1007A000A99A8FE39CE90197F1F700C000000E942D
:1007B000710080910E01823019F40E94BE0004C0C5
:1007C000833011F40E948D00A198A998A29AAA9A48
:1007D0008FE39CE90197F1F700C000000E947100CF
:1007E00080910E01823019F40E94BE0004C0833053
:1007F00011F40E948D00A298AA98A39AAB9A8FE355
:100800009CE90197F1F700C000000E9471008091FF
:100810000E01823019F40E94BE0004C0833011F42E
:100820000E948D00A398AB98A49AAC9A8FE39CE9A0
:100830000197F1F700C000000E94710080910E0145
:10084000823019F40E94BE0004C0833011F40E946B
:100850008D00A498AC98A59AAD9A8FE39CE9019776
:10086000F1F700C000000E94710080910E018230FB
:1008700019F40E94BE0004C0833011F40E948D0060
:10088000A598AD98A69AAE9A8FE39CE90197F1F7E7
:1008900000C000000E94710080910E01823019F4A6
:1008A0000E94BE0004C0833011F40E948D00A698FF
:1008B000AE98A79AAF9A8FE39CE90197F1F700C031
:1008C00000000E94710080910E01823019F40E9494
:1008D000BE0004C0833011F40E948D00A798AF9829
:1008E000D79ADF9A0E94C0068FE39CE90197F1F73F
:1008F00000C000000E94710080910E01823019F446
:100900000E94BE0004C0833011F40E948D00D7986D
:10091000DF98D69ADE9A8FE39CE90197F1F700C041
:1009200000000E94710080910E01823019F40E9433
:10093000BE0004C0833011F40E948D00D698DE986A
:10094000D59ADD9A8FE39CE90197F1F700C000008A
:100950000E94710080910E01823019F40E94BE0045
:1009600004C0833011F40E948D00D598DD98D49A8C
:10097000DC9A8FE39CE90197F1F700C000000E9428
:10098000710080910E01823019F40E94BE0004C0F3
:10099000833011F40E948D00D498DC98D39ADB9AAE
:1009A0008FE39CE90197F1F700C000000E947100FD
:1009B00080910E01823019F40E94BE0004C0833081
:1009C00011F40E948D00D398DB98D29ADA9A8FE3C3
:1009D0009CE90197F1F700C000000E94710080912E
:1009E0000E01823019F40E94BE0004C0833011F45D
:1009F0000E948D00D298DA98D19AD99A8FE39CE917
:100A00000197F1F700C000000E94710080910E0173
:100A1000823019F40E94BE0004C0833011F40E9499
:100A20008D00D198D998D09AD89A8FE39CE90197F4
:100A3000F1F700C000000E94710080910E01823029
:100A400019F40E94BE0004C0833011F40E948D008E
:100A5000D098D8980895682F80910F019091100137
:100A60000E94620080910F01909110010196909375
:100A7000100180930F0120910C0130910D01821B18
:100A8000930B843E910559F482E080930E01E5E6D4
:100A9000F0E080818B7F80830E94720508951DBCE9
:100AA0001CBC0E94C0065D9BFECF82E78CB95D9B9B
:100AB000FECF8EE68CB95D9BFECF8AE08CB908959F
:100AC000919A929AEAE6F0E080818260808389B709
:100AD000866089BF089589B78D7F89BF89B78B7F6D
:100AE00089BF089588B7866088BF89B7866089BF47
:100AF00008951F920F920FB60F9211242F933F93D8
:100B00004F935F936F937F938F939F93AF93BF9315
:100B1000EF93FF93E5E6F0E080818F7E8083808114
:100B2000877F808380910E01823059F0833019F0E5
:100B3000813039F503C0819B19C013C00E942B0975
:100B400020C00E9476011DC081990BC02FEF31EEAD
:100B500094E0215030409040E1F700C00000815007
:100B600099F781990EC00E9476010BC02FEF31EEEC
:100B700084E0215030408040E1F700C0000089E06F
:100B8000E3CFFF91EF91BF91AF919F918F917F91B3
:100B90006F915F914F913F912F910F900FBE0F90EA
:100BA0001F9018951F920F920FB60F9211242F933A
:100BB0003F934F935F936F937F938F939F93AF93E5
:100BC000BF93EF93FF93E5E6F0E080818F7E808313
:100BD0008081877F80838AE00E94EF06FF91EF91FA
:100BE000BF91AF919F918F917F916F915F914F9145
:100BF0003F912F910F900FBE0F901F9018951F924D
:100C00000F920FB60F9211242F933F934F935F9340
:100C10006F937F938F939F93AF93BF93EF93FF93C4
:100C200080910E01843029F40E9474160E942B05D5
:100C300006C00E9474160E9496160E947816FF91B4
:100C4000EF91BF91AF919F918F917F916F915F9144
:100C50004F913F912F910F900FBE0F901F901895BD
:100C60001F920F920FB60F9211242F933F934F9321
:100C70005F936F937F938F939F93AF93BF93EF9304
:100C8000FF93809108018F5F80930801833091F476
:100C900081E080930E01E5E6F0E080818B7F808328
:100CA0000E94D4160E9466160E9472050E94D40605
:100CB00010920801FF91EF91BF91AF919F918F9199
:100CC0007F916F915F914F913F912F910F900FBE48
:100CD0000F901F9018950E947E060E948A060E941F
:100CE00099060E94D4060E94600589E190E00E9466
:100CF0006B1681E080930E017894FFCFE4E6F0E07C
:100D0000808184608083808188608083808180612D
:100D1000808308958B9AE4E6F0E08081826080838E
:100D2000808181608083E5E6F0E080818E7F808332
:100D30000895E5E6F0E080818160808380818E7F88
:100D40008083089593E0E5E6F0E08081846080830D
:100D50002FEF30E782E0215030408040E1F700C0C3
:100D6000000080818B7F80832FEF30E782E021506D
:100D700030408040E1F700C00000915031F7089505
:100D80008091630082FF06C0E5E6F0E080818B7F02
:100D9000808308958091630082FD05C0E5E6F0E060
:100DA00080818460808308959398E4E6F0E08081F8
:100DB0008D7F808380818E7F8083E5E6F0E0808177
:100DC0008260808380818160808308950E948A068A
:100DD000E5E6F0E080818D7F8083939A0895CF933C
:100DE000C82F83990CC080910E01813019F482E0E4
:100DF00080930E010E94E6068FEF80930901CA30AE
:100E000019F5809109018F5F8093090190910E017E
:100E1000913019F492E090930E018830F1F4109221
:100E2000090180910E01823021F581E080930E014D
:100E30000E94D4062FEF84E39CE021508040904034
:100E4000E1F700C0000009C080910E01813019F463
:100E500082E080930E01C0930901C09109018C2F9B
:100E600090E088309105E0F5FC01EA5BFF4F0C94BF
:100E7000D81610920D0110920C01C0E085C084EECE
:100E800090E090930D0180930C017EC088EC91E07E
:100E900090930D0180930C0177C08CEA92E09093BF
:100EA0000D0180930C0170C080E993E090930D01D7
:100EB00080930C0169C084E794E090930D018093C6
:100EC0000C0162C088E595E090930D0180930C01C0
:100ED0005BC08CE396E090930D0180930C0154C0AD
:100EE0000E94990691E09C0F51F0E5E6F0E08081C8
:100EF0008260808380818D7F80839150C1F72FEF46
:100F000082E597E0215080409040E1F700C000006A
:100F100081993FC02FEF89E698E1215080409040B1
:100F2000E1F700C00000819921C080910E0182305C
:100F300079F483E080930E010E94A206E5E6F0E0DA
:100F40008081846080830E9450160E94D2160EC059
:100F5000833061F482E080930E010E94A206E5E6F0
:100F6000F0E080818B7F80830E94D416819BFECF2E
:100F7000829BFCCF2FEF89E698E121508040904082
:100F8000E1F700C0000005C00E94990691E09C0FA7
:100F9000ACCFCF910895039B05C05D9BFECF81E34D
:100FA0008CB902C00E948716029B05C05D9BFECFD4
:100FB00081E38CB902C00E948716019B05C05D9B2E
:100FC000FECF81E38CB902C00E948716009B05C04A
:100FD0005D9BFECF81E38CB908950E94871608952A
:100FE0000A9B05C05D9BFECF81E38CB902C00E94C5
:100FF00087160B9B05C05D9BFECF81E38CB902C0B9
:101000000E9487160C9B05C05D9BFECF81E38CB9C7
:1010100002C00E9487160D9B05C05D9BFECF81E339
:101020008CB902C00E9487160E9B05C05D9BFECF47
:1010300081E38CB902C00E9487160F9B05C05D9B9F
:10104000FECF81E38CB908950E9487160895B09B66
:1010500005C05D9BFECF81E38CB902C00E9487165C
:10106000B19B05C05D9BFECF81E38CB902C00E949D
:101070008716B29B05C05D9BFECF81E38CB902C091
:101080000E948716B39B05C05D9BFECF81E38CB9A0
:1010900002C00E948716B49B05C05D9BFECF81E312
:1010A0008CB902C00E948716B59B05C05D9BFECF20
:1010B00081E38CB902C00E948716B69B05C05D9B78
:1010C000FECF81E38CB902C00E948716B79B05C092
:1010D0005D9BFECF81E38CB908950E948716089529
:1010E000809B05C05D9BFECF81E38CB902C00E944E
:1010F00087165D9BFECF80E28CB9859B05C05D9B0A
:10110000FECF81E38CB902C00E948716869B05C082
:101110005D9BFECF81E38CB902C00E948716879B3E
:1011200005C05D9BFECF81E38CB908950E948716B0
:101130000895989B05C05D9BFECF81E38CB902C0EA
:101140000E948716999B05C05D9BFECF81E38CB9F9
:1011500002C00E9487169A9B05C05D9BFECF81E36B
:101160008CB902C00E9487169B9B05C05D9BFECF79
:1011700081E38CB902C00E9487169C9B05C05D9BD1
:10118000FECF81E38CB902C00E9487169D9B05C0EB
:101190005D9BFECF81E38CB902C00E9487169E9BA7
:1011A00005C05D9BFECF81E38CB902C00E9487160B
:1011B0009F9B05C05D9BFECF81E38CB908950E9483
:1011C00087160895CF9B05C05D9BFECF81E38CB948
:1011D00002C00E948716CE9B05C05D9BFECF81E3B7
:1011E0008CB902C00E948716CD9B05C05D9BFECFC7
:1011F00081E38CB902C00E948716CC9B05C05D9B21
:10120000FECF81E38CB902C00E948716CB9B05C03C
:101210005D9BFECF81E38CB902C00E948716CA9BFA
:1012200005C05D9BFECF81E38CB902C00E9487168A
:10123000C99B05C05D9BFECF81E38CB902C00E94B3
:101240008716C89B05C05D9BFECF81E38CB90895CE
:101250000E9487160895E5E6F0E08081846080832F
:10126000E1E6F0E0808188608083E2E6F0E0808162
:10127000886080838FE39CE90197F1F700C000004C
:101280005D9BFECF85E58CB9029B05C05D9BFECFC3
:1012900081E38CB902C00E948716019B05C05D9B4B
:1012A000FECF81E38CB902C00E948716009B05C067
:1012B0005D9BFECF81E38CB902C00E9487160E941D
:1012C000F0070E9427080E9470080E9499080E9457
:1012D000E208A1E6B0E08C91877F8C93E2E6F0E033
:1012E0008081877F80838C9184608C9380818460EF
:1012F00080838FE39CE90197F1F700C00000039B16
:1013000005C05D9BFECF81E38CB902C00E948716A9
:101310005D9BFECF85E58CB9019B05C05D9BFECF33
:1013200081E38CB902C00E948716009B05C05D9BBB
:10133000FECF81E38CB902C00E9487160E94F0079D
:101340000E9427080E9470080E9499080E94E208E3
:10135000A1E6B0E08C918B7F8C93E2E6F0E0808197
:101360008B7F80838C9182608C938081826080836C
:101370008FE39CE90197F1F700C00000039B05C0D3
:101380005D9BFECF81E38CB902C00E948716029B51
:1013900005C05D9BFECF81E38CB902C00E94871619
:1013A0005D9BFECF85E58CB9009B05C05D9BFECFA4
:1013B00081E38CB902C00E9487160E94F0070E9448
:1013C00027080E9470080E9499080E94E208A1E67E
:1013D000B0E08C918D7F8C93E2E6F0E080818D7F90
:1013E00080838C9181608C938081816080838FE386
:1013F0009CE90197F1F700C00000039B05C05D9BCD
:10140000FECF81E38CB902C00E948716029B05C003
:101410005D9BFECF81E38CB902C00E948716019BC1
:1014200005C05D9BFECF81E38CB902C00E94871688
:101430005D9BFECF85E58CB90E94F0070E942708CE
:101440000E9470080E9499080E94E208E1E6F0E01C
:1014500080818E7F8083E2E6F0E080818E7F8083D2
:10146000129A1A9A8FE39CE90197F1F700C00000E5
:101470000E94CB075D9BFECF85E58CB90B9B05C019
:101480005D9BFECF81E38CB902C00E9487160C9B46
:1014900005C05D9BFECF81E38CB902C00E94871618
:1014A0000D9B05C05D9BFECF81E38CB902C00E94FD
:1014B00087160E9B05C05D9BFECF81E38CB902C0F1
:1014C0000E9487160F9B05C05D9BFECF81E38CB900
:1014D00002C00E9487160E9427080E9470080E947E
:1014E00099080E94E20812981A98139A1B9A8FE39F
:1014F0009CE90197F1F700C000000E94CB070A9B0E
:1015000005C05D9BFECF81E38CB902C00E948716A7
:101510005D9BFECF85E58CB90C9B05C05D9BFECF26
:1015200081E38CB902C00E9487160D9B05C05D9BAC
:10153000FECF81E38CB902C00E9487160E9B05C0C6
:101540005D9BFECF81E38CB902C00E9487160F9B82
:1015500005C05D9BFECF81E38CB902C00E94871657
:101560000E9427080E9470080E9499080E94E208C1
:1015700013981B98149A1C9A8FE39CE90197F1F732
:1015800000C000000E94CB070A9B05C05D9BFECFF8
:1015900081E38CB902C00E9487160B9B05C05D9B3E
:1015A000FECF81E38CB902C00E9487165D9BFECFFF
:1015B00085E58CB90D9B05C05D9BFECF81E38CB9A1
:1015C00002C00E9487160E9B05C05D9BFECF81E383
:1015D0008CB902C00E9487160F9B05C05D9BFECF91
:1015E00081E38CB902C00E9487160E9427080E94DE
:1015F00070080E9499080E94E20814981C98159A95
:101600001D9A8FE39CE90197F1F700C000000E944A
:10161000CB070A9B05C05D9BFECF81E38CB902C05E
:101620000E9487160B9B05C05D9BFECF81E38CB9A2
:1016300002C00E9487160C9B05C05D9BFECF81E314
:101640008CB902C00E9487165D9BFECF85E58CB9E0
:101650000E9B05C05D9BFECF81E38CB902C00E944A
:1016600087160F9B05C05D9BFECF81E38CB902C03E
:101670000E9487160E9427080E9470080E949908FD
:101680000E94E20815981D98169A1E9A8FE39CE90D
:101690000197F1F700C000000E94CB070A9B05C02C
:1016A0005D9BFECF81E38CB902C00E9487160B9B25
:1016B00005C05D9BFECF81E38CB902C00E948716F6
:1016C0000C9B05C05D9BFECF81E38CB902C00E94DC
:1016D00087160D9B05C05D9BFECF81E38CB902C0D0
:1016E0000E9487165D9BFECF85E58CB90F9B05C0D8
:1016F0005D9BFECF81E38CB902C00E9487160E94D9
:1017000027080E9470080E9499080E94E208169813
:101710001E98179A1F9A8FE39CE90197F1F700C072
:1017200000000E94CB070A9B05C05D9BFECF81E3B2
:101730008CB902C00E9487160B9B05C05D9BFECF33
:1017400081E38CB902C00E9487160C9B05C05D9B8B
:10175000FECF81E38CB902C00E9487160D9B05C0A5
:101760005D9BFECF81E38CB902C00E9487160E9B61
:1017700005C05D9BFECF81E38CB902C00E94871635
:101780005D9BFECF85E58CB90E9427080E947008FA
:101790000E9499080E94E20817981F98B89AC09A68
:1017A0008FE39CE90197F1F700C000000E94CB078E
:1017B0000E94F0075D9BFECF85E58CB9B19B05C00B
:1017C0005D9BFECF81E38CB902C00E948716B29B5D
:1017D00005C05D9BFECF81E38CB902C00E948716D5
:1017E000B39B05C05D9BFECF81E38CB902C00E9414
:1017F0008716B49B05C05D9BFECF81E38CB902C008
:101800000E948716B59B05C05D9BFECF81E38CB916
:1018100002C00E948716B69B05C05D9BFECF81E388
:101820008CB902C00E948716B79B05C05D9BFECF96
:1018300081E38CB902C00E9487160E9470080E9442
:1018400099080E94E208B898C098B99AC19A8FE3A3
:101850009CE90197F1F700C000000E94CB070E94AD
:10186000F007B09B05C05D9BFECF81E38CB902C041
:101870000E9487165D9BFECF85E58CB9B29B05C0A3
:101880005D9BFECF81E38CB902C00E948716B39B9B
:1018900005C05D9BFECF81E38CB902C00E94871614
:1018A000B49B05C05D9BFECF81E38CB902C00E9452
:1018B0008716B59B05C05D9BFECF81E38CB902C046
:1018C0000E948716B69B05C05D9BFECF81E38CB955
:1018D00002C00E948716B79B05C05D9BFECF81E3C7
:1018E0008CB902C00E9487160E9470080E94990855
:1018F0000E94E208B998C198BA9AC29A8FE39CE90B
:101900000197F1F700C000000E94CB070E94F0078A
:10191000B09B05C05D9BFECF81E38CB902C00E94E5
:101920008716B19B05C05D9BFECF81E38CB902C0D9
:101930000E9487165D9BFECF85E58CB9B39B05C0E1
:101940005D9BFECF81E38CB902C00E948716B49BD9
:1019500005C05D9BFECF81E38CB902C00E94871653
:10196000B59B05C05D9BFECF81E38CB902C00E9490
:101970008716B69B05C05D9BFECF81E38CB902C084
:101980000E948716B79B05C05D9BFECF81E38CB993
:1019900002C00E9487160E9470080E9499080E9447
:1019A000E208BA98C298BB9AC39A8FE39CE9019760
:1019B000F1F700C000000E94CB070E94F007B09B27
:1019C00005C05D9BFECF81E38CB902C00E948716E3
:1019D000B19B05C05D9BFECF81E38CB902C00E9424
:1019E0008716B29B05C05D9BFECF81E38CB902C018
:1019F0000E9487165D9BFECF85E58CB9B49B05C020
:101A00005D9BFECF81E38CB902C00E948716B59B17
:101A100005C05D9BFECF81E38CB902C00E94871692
:101A2000B69B05C05D9BFECF81E38CB902C00E94CE
:101A30008716B79B05C05D9BFECF81E38CB902C0C2
:101A40000E9487160E9470080E9499080E94E2086E
:101A5000BB98C398BC9AC49A8FE39CE90197F1F7AD
:101A600000C000000E94CB070E94F007B09B05C099
:101A70005D9BFECF81E38CB902C00E948716B19BAB
:101A800005C05D9BFECF81E38CB902C00E94871622
:101A9000B29B05C05D9BFECF81E38CB902C00E9462
:101AA0008716B39B05C05D9BFECF81E38CB902C056
:101AB0000E9487165D9BFECF85E58CB9B59B05C05E
:101AC0005D9BFECF81E38CB902C00E948716B69B56
:101AD00005C05D9BFECF81E38CB902C00E948716D2
:101AE000B79B05C05D9BFECF81E38CB902C00E940D
:101AF00087160E9470080E9499080E94E208BC980C
:101B0000C498BD9AC59A8FE39CE90197F1F700C08C
:101B100000000E94CB070E94F007B09B05C05D9BB0
:101B2000FECF81E38CB902C00E948716B19B05C02D
:101B30005D9BFECF81E38CB902C00E948716B29BE9
:101B400005C05D9BFECF81E38CB902C00E94871661
:101B5000B39B05C05D9BFECF81E38CB902C00E94A0
:101B60008716B49B05C05D9BFECF81E38CB902C094
:101B70000E9487165D9BFECF85E58CB9B69B05C09C
:101B80005D9BFECF81E38CB902C00E948716B79B94
:101B900005C05D9BFECF81E38CB902C00E94871611
:101BA0000E9470080E9499080E94E208BD98C5989A
:101BB000BE9AC69A8FE39CE90197F1F700C0000036
:101BC0000E94CB070E94F007B09B05C05D9BFECF33
:101BD00081E38CB902C00E948716B19B05C05D9B52
:101BE000FECF81E38CB902C00E948716B29B05C06C
:101BF0005D9BFECF81E38CB902C00E948716B39B28
:101C000005C05D9BFECF81E38CB902C00E948716A0
:101C1000B49B05C05D9BFECF81E38CB902C00E94DE
:101C20008716B59B05C05D9BFECF81E38CB902C0D2
:101C30000E9487165D9BFECF85E58CB9B79B05C0DA
:101C40005D9BFECF81E38CB902C00E9487160E9483
:101C500070080E9499080E94E208BE98C698BF9A30
:101C6000C79A8FE39CE90197F1F700C000000E943A
:101C7000CB070E94F007B09B05C05D9BFECF81E3C0
:101C80008CB902C00E948716B19B05C05D9BFECF38
:101C900081E38CB902C00E948716B29B05C05D9B90
:101CA000FECF81E38CB902C00E948716B39B05C0AA
:101CB0005D9BFECF81E38CB902C00E948716B49B66
:101CC00005C05D9BFECF81E38CB902C00E948716E0
:101CD000B59B05C05D9BFECF81E38CB902C00E941D
:101CE0008716B69B05C05D9BFECF81E38CB902C011
:101CF0000E9487165D9BFECF85E58CB90E94700817
:101D00000E9499080E94E208BF98C798889A909A02
:101D10008FE39CE90197F1F700C000000E94CB0718
:101D20000E94F0070E9427085D9BFECF85E58CB9D5
:101D30005D9BFECF80E28CB9859B05C05D9BFECF8D
:101D400081E38CB902C00E948716869B05C05D9B0B
:101D5000FECF81E38CB902C00E948716879B05C025
:101D60005D9BFECF81E38CB902C00E9487160E9462
:101D700099080E94E208889890988D9A959A8FE326
:101D80009CE90197F1F700C000000E94CB070E9478
:101D9000F0070E942708809B05C05D9BFECF81E372
:101DA0008CB902C00E9487165D9BFECF80E28CB981
:101DB0005D9BFECF85E58CB9869B05C05D9BFECF04
:101DC00081E38CB902C00E948716879B05C05D9B8A
:101DD000FECF81E38CB902C00E9487160E94990849
:101DE0000E94E2088D9895988E9A969A8FE39CE9C6
:101DF0000197F1F700C000000E94CB070E94F00796
:101E00000E942708809B05C05D9BFECF81E38CB9B3
:101E100002C00E9487165D9BFECF80E28CB9859B35
:101E200005C05D9BFECF81E38CB902C00E9487167E
:101E30005D9BFECF85E58CB9879B05C05D9BFECF82
:101E400081E38CB902C00E9487160E9499080E9403
:101E5000E2088E9896988F9A979A8FE39CE901975B
:101E6000F1F700C000000E94CB070E94F0070E941B
:101E70002708809B05C05D9BFECF81E38CB902C023
:101E80000E9487165D9BFECF80E28CB9859B05C0C2
:101E90005D9BFECF81E38CB902C00E948716869BB2
:101EA00005C05D9BFECF81E38CB902C00E948716FE
:101EB0005D9BFECF85E58CB90E9499080E94E208DF
:101EC0008F989798A09AA89A8FE39CE90197F1F7C9
:101ED00000C000000E94CB070E94F0070E94270864
:101EE0000E9470085D9BFECF85E58CB9999B05C06B
:101EF0005D9BFECF81E38CB902C00E9487169A9B3E
:101F000005C05D9BFECF81E38CB902C00E9487169D
:101F10009B9B05C05D9BFECF81E38CB902C00E94F4
:101F200087169C9B05C05D9BFECF81E38CB902C0E8
:101F30000E9487169D9B05C05D9BFECF81E38CB9F7
:101F400002C00E9487169E9B05C05D9BFECF81E369
:101F50008CB902C00E9487169F9B05C05D9BFECF77
:101F600081E38CB902C00E9487160E94E208A09803
:101F7000A898A19AA99A8FE39CE90197F1F700C06C
:101F800000000E94CB070E94F0070E9427080E94D1
:101F90007008989B05C05D9BFECF81E38CB902C0A1
:101FA0000E9487165D9BFECF85E58CB99A9B05C084
:101FB0005D9BFECF81E38CB902C00E9487169B9B7C
:101FC00005C05D9BFECF81E38CB902C00E948716DD
:101FD0009C9B05C05D9BFECF81E38CB902C00E9433
:101FE00087169D9B05C05D9BFECF81E38CB902C027
:101FF0000E9487169E9B05C05D9BFECF81E38CB936
:1020000002C00E9487169F9B05C05D9BFECF81E3A7
:102010008CB902C00E9487160E94E208A198A99874
:10202000A29AAA9A8FE39CE90197F1F700C00000F9
:102030000E94CB070E94F0070E9427080E947008A8
:10204000989B05C05D9BFECF81E38CB902C00E94C6
:102050008716999B05C05D9BFECF81E38CB902C0BA
:102060000E9487165D9BFECF85E58CB99B9B05C0C2
:102070005D9BFECF81E38CB902C00E9487169C9BBA
:1020800005C05D9BFECF81E38CB902C00E9487161C
:102090009D9B05C05D9BFECF81E38CB902C00E9471
:1020A00087169E9B05C05D9BFECF81E38CB902C065
:1020B0000E9487169F9B05C05D9BFECF81E38CB974
:1020C00002C00E9487160E94E208A298AA98A39ACA
:1020D000AB9A8FE39CE90197F1F700C000000E94E2
:1020E000CB070E94F0070E9427080E947008989B67
:1020F00005C05D9BFECF81E38CB902C00E948716AC
:10210000999B05C05D9BFECF81E38CB902C00E9404
:1021100087169A9B05C05D9BFECF81E38CB902C0F8
:102120000E9487165D9BFECF85E58CB99C9B05C000
:102130005D9BFECF81E38CB902C00E9487169D9BF8
:1021400005C05D9BFECF81E38CB902C00E9487165B
:102150009E9B05C05D9BFECF81E38CB902C00E94AF
:1021600087169F9B05C05D9BFECF81E38CB902C0A3
:102170000E9487160E94E208A398AB98A49AAC9A92
:102180008FE39CE90197F1F700C000000E94CB07A4
:102190000E94F0070E9427080E947008989B05C0C3
:1021A0005D9BFECF81E38CB902C00E948716999B8C
:1021B00005C05D9BFECF81E38CB902C00E948716EB
:1021C0009A9B05C05D9BFECF81E38CB902C00E9443
:1021D00087169B9B05C05D9BFECF81E38CB902C037
:1021E0000E9487165D9BFECF85E58CB99D9B05C03F
:1021F0005D9BFECF81E38CB902C00E9487169E9B37
:1022000005C05D9BFECF81E38CB902C00E9487169A
:102210009F9B05C05D9BFECF81E38CB902C00E94ED
:1022200087160E94E208A498AC98A59AAD9A8FE30D
:102230009CE90197F1F700C000000E94CB070E94C3
:10224000F0070E9427080E947008989B05C05D9BBC
:10225000FECF81E38CB902C00E948716999B05C00E
:102260005D9BFECF81E38CB902C00E9487169A9BCA
:1022700005C05D9BFECF81E38CB902C00E9487162A
:102280009B9B05C05D9BFECF81E38CB902C00E9481
:1022900087169C9B05C05D9BFECF81E38CB902C075
:1022A0000E9487165D9BFECF85E58CB99E9B05C07D
:1022B0005D9BFECF81E38CB902C00E9487169F9B75
:1022C00005C05D9BFECF81E38CB902C00E948716DA
:1022D0000E94E208A598AD98A69AAE9A8FE39CE971
:1022E0000197F1F700C000000E94CB070E94F007A1
:1022F0000E9427080E947008989B05C05D9BFECF36
:1023000081E38CB902C00E948716999B05C05D9B32
:10231000FECF81E38CB902C00E9487169A9B05C04C
:102320005D9BFECF81E38CB902C00E9487169B9B08
:1023300005C05D9BFECF81E38CB902C00E94871669
:102340009C9B05C05D9BFECF81E38CB902C00E94BF
:1023500087169D9B05C05D9BFECF81E38CB902C0B3
:102360000E9487165D9BFECF85E58CB99F9B05C0BB
:102370005D9BFECF81E38CB902C00E9487160E944C
:10238000E208A698AE98A79AAF9A8FE39CE90197C6
:10239000F1F700C000000E94CB070E94F0070E94E6
:1023A00027080E947008989B05C05D9BFECF81E3C3
:1023B0008CB902C00E948716999B05C05D9BFECF19
:1023C00081E38CB902C00E9487169A9B05C05D9B71
:1023D000FECF81E38CB902C00E9487169B9B05C08B
:1023E0005D9BFECF81E38CB902C00E9487169C9B47
:1023F00005C05D9BFECF81E38CB902C00E948716A9
:102400009D9B05C05D9BFECF81E38CB902C00E94FD
:1024100087169E9B05C05D9BFECF81E38CB902C0F1
:102420000E9487165D9BFECF85E58CB90E94E2086D
:10243000A798AF98D79ADF9A8FE39CE90197F1F7B5
:1024400000C000000E94CB070E94F0070E942708EE
:102450000E9470080E9499085D9BFECF85E58CB9AB
:10246000CE9B05C05D9BFECF81E38CB902C00E946C
:102470008716CD9B05C05D9BFECF81E38CB902C062
:102480000E948716CC9B05C05D9BFECF81E38CB973
:1024900002C00E948716CB9B05C05D9BFECF81E3E7
:1024A0008CB902C00E948716CA9B05C05D9BFECFF7
:1024B00081E38CB902C00E948716C99B05C05D9B51
:1024C000FECF81E38CB902C00E948716C89B05C06D
:1024D0005D9BFECF81E38CB902C00E948716D7981E
:1024E000DF98D69ADE9A8FE39CE90197F1F700C056
:1024F00000000E94CB070E94F0070E9427080E945C
:1025000070080E949908CF9B05C05D9BFECF81E3B8
:102510008CB902C00E9487165D9BFECF85E58CB901
:10252000CD9B05C05D9BFECF81E38CB902C00E94AC
:102530008716CC9B05C05D9BFECF81E38CB902C0A2
:102540000E948716CB9B05C05D9BFECF81E38CB9B3
:1025500002C00E948716CA9B05C05D9BFECF81E327
:102560008CB902C00E948716C99B05C05D9BFECF37
:1025700081E38CB902C00E948716C89B05C05D9B91
:10258000FECF81E38CB902C00E948716D698DE98F0
:10259000D59ADD9A8FE39CE90197F1F700C000001E
:1025A0000E94CB070E94F0070E9427080E94700833
:1025B0000E949908CF9B05C05D9BFECF81E38CB93B
:1025C00002C00E948716CE9B05C05D9BFECF81E3B3
:1025D0008CB902C00E9487165D9BFECF85E58CB941
:1025E000CC9B05C05D9BFECF81E38CB902C00E94ED
:1025F0008716CB9B05C05D9BFECF81E38CB902C0E3
:102600000E948716CA9B05C05D9BFECF81E38CB9F3
:1026100002C00E948716C99B05C05D9BFECF81E367
:102620008CB902C00E948716C89B05C05D9BFECF77
:1026300081E38CB902C00E948716D598DD98D49AA0
:10264000DC9A8FE39CE90197F1F700C000000E943B
:10265000CB070E94F0070E9427080E9470080E9482
:102660009908CF9B05C05D9BFECF81E38CB902C06A
:102670000E948716CE9B05C05D9BFECF81E38CB97F
:1026800002C00E948716CD9B05C05D9BFECF81E3F3
:102690008CB902C00E9487165D9BFECF85E58CB980
:1026A000CB9B05C05D9BFECF81E38CB902C00E942D
:1026B0008716CA9B05C05D9BFECF81E38CB902C023
:1026C0000E948716C99B05C05D9BFECF81E38CB934
:1026D00002C00E948716C89B05C05D9BFECF81E3A8
:1026E0008CB902C00E948716D498DC98D39ADB9AE2
:1026F0008FE39CE90197F1F700C000000E94CB072F
:102700000E94F0070E9427080E9470080E94990802
:10271000CF9B05C05D9BFECF81E38CB902C00E94B8
:102720008716CE9B05C05D9BFECF81E38CB902C0AE
:102730000E948716CD9B05C05D9BFECF81E38CB9BF
:1027400002C00E948716CC9B05C05D9BFECF81E333
:102750008CB902C00E9487165D9BFECF85E58CB9BF
:10276000CA9B05C05D9BFECF81E38CB902C00E946D
:102770008716C99B05C05D9BFECF81E38CB902C063
:102780000E948716C89B05C05D9BFECF81E38CB974
:1027900002C00E948716D398DB98D29ADA9A8FE308
:1027A0009CE90197F1F700C000000E94CB070E944E
:1027B000F0070E9427080E9470080E949908CF9B8A
:1027C00005C05D9BFECF81E38CB902C00E948716D5
:1027D000CE9B05C05D9BFECF81E38CB902C00E94F9
:1027E0008716CD9B05C05D9BFECF81E38CB902C0EF
:1027F0000E948716CC9B05C05D9BFECF81E38CB900
:1028000002C00E948716CB9B05C05D9BFECF81E373
:102810008CB902C00E9487165D9BFECF85E58CB9FE
:10282000C99B05C05D9BFECF81E38CB902C00E94AD
:102830008716C89B05C05D9BFECF81E38CB902C0A3
:102840000E948716D298DA98D19AD99A8FE39CE998
:102850000197F1F700C000000E94CB070E94F0072B
:102860000E9427080E9470080E949908CF9B05C00B
:102870005D9BFECF81E38CB902C00E948716CE9B80
:1028800005C05D9BFECF81E38CB902C00E94871614
:10289000CD9B05C05D9BFECF81E38CB902C00E9439
:1028A0008716CC9B05C05D9BFECF81E38CB902C02F
:1028B0000E948716CB9B05C05D9BFECF81E38CB940
:1028C00002C00E948716CA9B05C05D9BFECF81E3B4
:1028D0008CB902C00E9487165D9BFECF85E58CB93E
:1028E000C89B05C05D9BFECF81E38CB902C00E94EE
:1028F0008716D198D998D09AD89A8FE39CE90197F6
:10290000F1F700C000000E94CB070E94F0070E9470
:1029100027080E9470080E949908CF9B05C05D9B04
:10292000FECF81E38CB902C00E948716CE9B05C002
:102930005D9BFECF81E38CB902C00E948716CD9BC0
:1029400005C05D9BFECF81E38CB902C00E94871653
:10295000CC9B05C05D9BFECF81E38CB902C00E9479
:102960008716CB9B05C05D9BFECF81E38CB902C06F
:102970000E948716CA9B05C05D9BFECF81E38CB980
:1029800002C00E948716C99B05C05D9BFECF81E3F4
:102990008CB902C00E9487165D9BFECF85E58CB97D
:1029A000D098D8985D9BFECF8AE08CB9E5E6F0E040
:1029B00080818B7F80830895CF93DF9380910C017A
:1029C00090910D0190930B0180930A01D6E20E9431
:1029D000C00680910A0190910B010E946A00C82FE5
:1029E00083FF03C00E948C1602C00E948716C2FF9C
:1029F00003C00E948C1602C00E948716C1FF03C04C
:102A00000E948C1602C00E948716C0FF03C00E945D
:102A10008C1602C00E94871680910A0190910B01CA
:102A2000019690930B0180930A010E946A00C82FBF
:102A300082FF03C00E948C1602C00E948716C3FF4B
:102A400003C00E948C1602C00E948716C4FF03C0F8
:102A50000E948C1602C00E948716C5FF03C00E9408
:102A60008C1602C00E948716C6FF03C00E948C16F7
:102A700002C00E948716CC231CF40E948C1602C050
:102A80000E94871680910A0190910B010196909304
:102A90000B0180930A010E946A00C82F80FF03C0C7
:102AA0000E948C1602C00E948716C1FF03C00E94BC
:102AB0008C1602C00E948716C2FF03C00E948C16AB
:102AC00002C00E948716C3FF03C00E948C1602C07A
:102AD0000E948716C4FF03C00E948C1602C00E9489
:102AE0008716C5FF03C00E948C1602C00E9487167D
:102AF000C6FF03C00E948C1602C00E948716CC231A
:102B00001CF40E948C1602C00E94871680910A0154
:102B100090910B01019690930B0180930A010E9402
:102B20006A00C82F80FF03C00E948C1602C00E945A
:102B300087160E949116C5FF03C00E948C1602C022
:102B40000E948716C6FF03C00E948C1602C00E9416
:102B50008716CC231CF40E948C1602C00E94871694
:102B600080910A0190910B01019690930B01809343
:102B70000A010E946A00C82F80FF03C00E948C16C1
:102B800002C00E948716C1FF03C00E948C1602C0BB
:102B90000E948716C2FF03C00E948C1602C00E94CA
:102BA0008716C3FF03C00E948C1602C00E948716BE
:102BB000C4FF03C00E948C1602C00E948716C5FF86
:102BC00003C00E948C1602C00E948716C6FF03C075
:102BD0000E948C1602C00E948716CC231CF40E940F
:102BE0008C1602C00E94871680910A0190910B01F9
:102BF000019690930B0180930A010E946A00C82FEE
:102C000088231CF40E948C1602C00E948716C6FFFF
:102C100003C00E948C1602C00E948716C5FF03C025
:102C20000E948C1602C00E948716C4FF03C00E9437
:102C30008C1602C00E948716C3FF03C00E948C1628
:102C400002C00E948716C2FF03C00E948C1602C0F9
:102C50000E948716C1FF03C00E948C1602C00E940A
:102C60008716C0FF03C00E948C1602C00E94871600
:102C700080910A0190910B01019690930B01809332
:102C80000A01D15009F0A3CE5D9BFECF8AE08CB93A
:102C9000E5E6F0E080818B7F8083DF91CF9108951E
:102CA00084E086BF8EB585608EBD87B7846087BFA0
:102CB0001DBC1CBC089584E086BF8EB584608EBDAB
:102CC00087B7846087BF1DBC1CBC089584E086BFA5
:102CD0001EBC17BE08959093900089B988E98AB9FF
:102CE00086E08093950008955F9BFECF8CB1089598
:102CF000CF93DF931F92CDB7DEB75F9B04C08CB13B
:102D000089835F99FCCF0F90DF91CF9108955D9BF0
:102D1000FECF80E38CB908955D9BFECF81E38CB933
:102D200008955D9BFECF80E28CB90895CF938130EA
:102D300039F480930E010E94D4060E942B0930C002
:102D4000811106C081E080930E010E94D40628C044
:102D5000C82FCF7082958F700E94EF06C23019F491
:102D60000E94DC141DC0C430D9F40E945B1684E0BC
:102D700080930E010E946B0580910C0190910D01D2
:102D80009093100180930F015D9BFECF82E78CB979
:102D90005D9BFECF82E78CB95D9BFECF8AE08CB94C
:102DA000CF910895579808950E947816579A0895DC
:102DB000EE0FFF1F0590F491E02D0994F894FFCFDA
:00000001FF
